:020000040000FA
:060000000A128A11FC2F18
:100E6400F0007008831203178D00831603178C1388
:100E74000C14831203170C08FF007F08F10071089B
:100E84000800F100831603178C18492F4A2F442FAA
:100E94007108831203178D0070088C0083160317E2
:100EA4008C130C158B1355308D00AA308D008C14C7
:100EB4008B170C118C1008000F3083160313860057
:100EC4008801831203138801F60183120313861C1D
:100ED4006C2F6D2F882F0330FF007F08F0007608F9
:100EE4000A128A1143270A128A110130FF007F086F
:100EF400F6070330F4008A30F3005530F200F20BA9
:100F0400812FF30B812FF40B812F882F831203136E
:100F1400061D8D2F8E2FA92F0530FF007F08F000AE
:100F240076080A128A1143270A128A110130FF0037
:100F34007F08F6070330F4008A30F3005530F200DE
:100F4400F20BA22FF30BA22FF40BA22FA92F8312C3
:100F54000313861DAE2FAF2FCA2F0730FF007F0863
:100F6400F00076080A128A1143270A128A11013006
:100F7400FF007F08F6070330F4008A30F300553091
:100F8400F200F20BC32FF30BC32FF40BC32FCA2FA2
:100F940003307606031DCF2FD02FD12FF6018312F5
:100FA4000313061CD62FD72F672FF50175080A12D5
:100FB4008A1132270A128A11831203138800063019
:100FC400F4001330F300AD30F200F20BE72FF30B13
:100FD400E72FF40BE72FEE2F0130FF007F08F50712
:100FE40003307502031CF72FF82FD82F672F0A122E
:0C0FF4008A11002883010A128A115E2F66
:02400E00713F00
:00000001FF
