:020000040000FA
:100000000A128A11FC2F00308A000408840A820731
:1000100000344B34683461346C34653464342034D7
:100020004D3461346734643479340034003420341E
:10003000443465346534703442346C34753465341A
:040040000034003454
:100BC60000300A128A110A260A128A1101300A1204
:100BD6008A110A260A128A11080001300A128A119D
:100BE6000A260A128A1108300A128A110A260A12DD
:100BF6008A11080001300A128A110A260A128A117D
:100C06000C300A128A110A260A128A110800F30009
:100C160083120313861273080A128A1124260A12F3
:100C26008A118312031306160830F200C930F10048
:100C3600F10B1B2EF20B1B2E202E83120313061212
:100C46000800F000701C282E292E2D2E8312031367
:100C56000614302E831203130610F01C332E342E86
:100C6600362E8614372E8610701D3A2E3B2E3D2EBC
:100C760006153E2E0611F01D412E422E442E8615D7
:100C8600452E86110800F800F601F7015D2E76085C
:100C9600780784000A128A1103200A128A110A129E
:100CA6008A11BC260A128A110130F6070318F70AC0
:100CB6000030F7077608780784000A128A110320A5
:100CC6000A128A11003A031D692E6A2E4A2E08005E
:100CD600F6007603031D702E712E932E74087F3E48
:100CE600FF007F08F9007908F50004300310F50CC1
:100CF600FF3E031D792E7508FF007F08F80079086E
:100D06000F39FF007F08F70078080A128A110A26B1
:100D16000A128A1177080A128A110A260A128A11F9
:100D260002307606031D982E992EBB2E7408BF3E00
:100D3600FF007F08F9007908F50004300310F50C70
:100D4600FF3E031DA12E7508FF007F08F8007908F5
:100D56000F39FF007F08F70078080A128A110A2661
:100D66000A128A1177080A128A110A260A128A11A9
:100D76000800F50075080F39FF007F08F3007508B5
:100D8600F039FF007F08F4008312031386167408F7
:100D9600F10004300310F10CFF3E031DCD2E710847
:100DA6000A128A1124260A128A11831203130616BE
:100DB6000830F200C930F100F10BDF2EF20BDF2E06
:100DC600E42E8312031306120830F200C930F10034
:100DD600F10BEB2EF20BEB2EF02E73080A128A1192
:100DE60024260A128A118312031306160830F2000B
:100DF600C930F100F10BFD2EF20BFD2E022F8312EE
:100E0600031306120830F200C930F100F10B092F66
:100E1600F20B092F0E2F0800831603138601861284
:100E2600061200300A128A1124260A128A1102308A
:100E3600F600D430F5008530F400F40B202FF50BC6
:100E4600202FF60B202F0830F500C930F400F40BE4
:100E56002A2FF50B2A2F2F2F03300A128A110A2662
:100E66000A128A114E30F500EB30F400F40B392FDC
:100E7600F50B392F03300A128A110A260A128A1133
:100E86000330F5005530F400F40B472FF50B472FD0
:100E960003300A128A110A260A128A1102300A122D
:100EA6008A110A260A128A1102300A128A110A26A1
:100EB6000A128A1108300A128A110A260A128A119F
:100EC60000300A128A110A260A128A110C300A12F6
:100ED6008A110A260A128A1100300A128A110A2673
:100EE6000A128A1106300A128A110A260A128A1171
:100EF60008000A128A110F270A128A110A128A1189
:100F0600E3250A128A11F401F40A01300A128A1141
:100F16006B260A128A1101300A128A1146260A1213
:100F26008A11F401F40A02300A128A116B260A1297
:100F36008A110F300A128A1146260A128A11831262
:100F46000313A001A1011330FC004430FB00443020
:100F5600FA00FA0BAC2FFB0BAC2FFC0BAC2F0000EE
:100F66000A128A11FD250A128A110130831203130F
:100F7600A0070318A10A0030A1072108803AFF0044
:100F860080307F02031DC92F04302002031CCC2FA2
:100F9600CD2FA62F83120313A201A3011330FC0049
:100FA6004430FB004430FA00FA0BD72FFB0BD72F47
:100FB600FC0BD72F00000A128A11F0250A128A119B
:100FC600013083120313A2070318A30A0030A307F4
:100FD6002308803AFF0080307F02031DF42F04307F
:100FE6002202031CF72FF82FD12FA22F0A128A11E3
:0A0FF600002883010A128A117C2FE3
:02400E00713F00
:00000001FF
