:060000000A128A110C280F
:10000800FE00030EF0000A08F1000A128A112E28D9
:100018000A128A110F2883010A128A1113288316DB
:1000280003138610FF30831203138F00FE308E00F7
:1000380090141015101290128610831603130C14C6
:10004800831203130C100B178B1710142A280A128B
:100058008A110C28831203130C1C332834283628E1
:10006800023086060C10FF308F00FE308E007108BB
:0C0078008A00700E8300FE0E7E0E090050
:00000C01F3
