:100000000A128A11FC2F00308A000408840A820731
:1000100000344134423449344434203441344C3483
:04002000493400342B
:100E14008316031388018601831203138801860154
:100E24000800F3008312031388147308860008145F
:100E34000330F2008A30F1005530F000F00B202F1F
:100E4400F10B202FF20B202F272F831203130810EE
:100E54000800F30083120313881073088600081433
:100E64000330F2008A30F1005530F000F00B382FD7
:100E7400F10B382FF20B382F3F2F83120313081076
:100E84000800F400552F740884000A128A11032004
:100E94000A128A110A128A1113270A128A110130BE
:100EA400FF007F08F407740884000A128A110320E3
:100EB4000A128A11003A031D602F612F452F080082
:100EC4000A128A110A270A128A1101300A128A1197
:100ED4002B270A128A1102300A128A112B270A12AE
:100EE4008A110F300A128A112B270A128A118030B4
:100EF4000A128A112B270A128A1106300A128A1141
:100F04002B270A128A1138300A128A112B270A1247
:100F14008A110A128A11A7270A128A110B30F700C4
:100F24002630F6005D30F500F50B962FF60B962F64
:100F3400F70B962F9D2F01300A128A1143270A12AC
:100F44008A11A32F0A128A11002818300A128A1152
:100F54002B270A128A1118300A128A112B270A1217
:100F64008A1118300A128A112B270A128A11573053
:100F74000A128A1113270A128A1165300A128A1179
:100F840013270A128A116C300A128A1113270A12C3
:100F94008A1163300A128A1113270A128A116F30D8
:100FA4000A128A1113270A128A116D300A128A1141
:100FB40013270A128A1165300A128A1113270A129A
:100FC4008A1120300A128A1113270A128A111C303E
:100FD4000A128A112B270A128A111C300A128A114A
:100FE4002B270A128A111C300A128A112B270A1283
:0C0FF4008A11080083010A128A11622F82
:02400E00713F00
:00000001FF
