:020000040000FA
:060000000A128A1110280B
:10000800FE00030EF0000A08F100831203137F08B4
:10001800F2000A128A1118280A128A111328F30109
:1000280083010A128A1137280C1C1B281C282E2829
:100038000130FF007F08F30714307306031D2528DD
:100048002628292801308606F3013C308F00AF307E
:100058008E000C107208FF0071088A00700E830071
:10006800FE0E7E0E09008316031306108312031377
:1000780006103C308F00AF308E0090101012901296
:1000880006141014831603130C14831203130C1094
:0C0098000B178B174E280A128A11102833
:02400E00713F00
:00000001FF
