:060000000A128A1110280B
:10000800FE00030EF0000A08F100831203137F08B4
:10001800F2000A128A1118280A128A111328F30109
:1000280083010A128A1133280C1C1B281C282A2831
:100038000130FF007F08F3070F307306031D2528E2
:100048002628292801308606F3010C107208FF00C3
:1000580071088A00700E8300FE0E7E0E090083165A
:1000680003130610831203138E018F0190101012D0
:1000780090120614831603130C14831203130C1026
:0E0088000B178B17101447280A128A11102824
:00001001EF
