:020000040000FA
:060000000A128A1110280B
:10000800FE00030EF0000A08F100831203137F08B4
:10001800F2000A128A1135280A128A111328F301EC
:1000280083010A128A1118288316031307128312F0
:10003800031307128E018F011012901290101014E2
:10004800C330960050309500171497141711971560
:10005800831603130C150B178B1731280A128A11F4
:1000680010280C1D3828392847280130FF007F0840
:10007800F3070A307306031D422843284628103028
:100088008706F3010C117208FF0071088A00700ED0
:080098008300FE0E7E0E09003C
:02400E00713F00
:00000001FF
