:100000000A128A11FC2F00308A000408840A820731
:0C0010000034413442344934443400349C
:100DAA0083160313880186018312031388018601BF
:100DBA0083160313871607170800F3008312031319
:100DCA0088147308860008140330F2008A30F10090
:100DDA005530F000F00BEF2EF10BEF2EF20BEF2E49
:100DEA00F62E8312031308100800F300831203136C
:100DFA0088107308860008140330F2008A30F10064
:100E0A005530F000F00B072FF10B072FF20B072FCD
:100E1A000E2F8312031308100800F400242F7408FD
:100E2A0084000A128A1103200A128A110A128A11EC
:100E3A00E2260A128A110130FF007F08F4077408BB
:100E4A0084000A128A1103200A128A11003A031D29
:100E5A002F2F302F142F080018300A128A11FA2661
:100E6A000A128A1118300A128A11FA260A128A11EB
:100E7A0018300A128A11FA260A128A1157300A12EF
:100E8A008A11E2260A128A1165300A128A11E226AA
:100E9A000A128A116C300A128A11E2260A128A117F
:100EAA0063300A128A11E2260A128A116F300A1274
:100EBA008A11E2260A128A116D300A128A11E22672
:100ECA000A128A1165300A128A11E2260A128A1156
:100EDA0020300A128A11E2260A128A111C300A12DA
:100EEA008A11FA260A128A111C300A128A11FA2663
:100EFA000A128A111C300A128A11FA260A128A1157
:100F0A0008000A128A11D5260A128A1101300A1219
:100F1A008A11FA260A128A1102300A128A11FA264C
:100F2A000A128A110F300A128A11FA260A128A1133
:100F3A0080300A128A11FA260A128A1106300A1217
:100F4A008A11FA260A128A1138300A128A11FA26E6
:100F5A000A128A110A128A1131270A128A110B30CF
:100F6A00F7002630F6005D30F500F50BBA2FF60BC8
:100F7A00BA2FF70BBA2FC12F01300A128A11122782
:100F8A000A128A1183120313871ECC2FCD2FE82F42
:100F9A00871AD02FD12FCD2F0130F8070318F90A5D
:100FAA000030F907781CDA2FDB2FE22F0F300A12F4
:100FBA008A11FA260A128A11E82F08300A128A11AF
:100FCA00FA260A128A1183120313071FED2FEE2F36
:100FDA00C72F071BF12FF22FEE2F61300A128A1149
:100FEA00E2260A128A11C72F0A128A1100288301DF
:060FFA000A128A11862F85
:02400E00713F00
:00000001FF
